:100000000C945F000C9474000C9474000C947400B5
:100010000C9474000C9474000C9474000C94740090
:100020000C9474000C9474000C9474000C94740080
:100030000C9474000C9474000C9474000C94740070
:100040000C9474000C9474000C9474000C94740060
:100050000C9474000C9474000C9474000C94740050
:100060000C9474000C947400084AD73B3BCE016E8C
:1000700084BCBFFDC12F3D6C74319ABD56833DDAFF
:100080003D00C77F11BED9E4BB4C3E916BAAAABE0E
:10009000000000803F072C7AA5BA6CC590DA3B932C
:1000A00065FC8BBC53F810FD3C5692834DBD879D7B
:1000B0003AB63DCBC9BF5BBE73DA0FC93F0011240E
:1000C0001FBECFEFD8E0DEBFCDBF11E0A0E0B1E0B2
:1000D000ECECFBE102C005900D92AC30B107D9F712
:1000E0000E9435020C94E40D0C940000DF93CF9332
:1000F000CDB7DEB7E4ECF0E087E68083E5ECF0E036
:100100001082A1ECB0E0E1ECF0E0808188698C9392
:10011000A2ECB0E0E2ECF0E0808186608C93CF91BD
:10012000DF910895DF93CF930F92CDB7DEB7898328
:10013000E0ECF0E08081882F90E080729070009772
:10014000B9F3E6ECF0E0898180830F90CF91DF91E5
:100150000895DF93CF9300D00F92CDB7DEB79B8386
:100160008A83198210C08981282F30E08A819B817F
:10017000FC01E20FF31F8081982F89818F5F8983B3
:10018000892F0E9492008981282F30E08A819B81EB
:10019000FC01E20FF31F8081882329F78DE00E9484
:1001A00092008AE00E9492000F900F900F90CF91E2
:1001B000DF910895DF93CF93CDB7DEB7E0ECF0E0A9
:1001C00080818823DCF7E6ECF0E08081CF91DF913D
:1001D0000895DF93CF9300D00F92CDB7DEB79A8307
:1001E00089830E94DA00E981FA818083E981FA81BA
:1001F00080811B828A3011F081E08B8389819A8112
:1002000001969A8389838B81882359F7E981FA8142
:1002100010820F900F900F90CF91DF910895DF9390
:10022000CF93CDB7DEB7E0E8F0E082EA8083E1E883
:10023000F0E08BE18083E5E8F0E01082E4E8F0E0B4
:100240001082CF91DF910895EF92FF920F931F9349
:10025000DF93CF93CDB7DEB729970FB6F894DEBF03
:100260000FBECDBF9C838B837E836D834F838B8139
:100270009C81998788878885998527E281319207B3
:1002800020F080E197E299878887888599859C830B
:100290008B838B819C817C0100E010E08D819E81AD
:1002A0009C0140E050E0C801B7010E94360BDC0120
:1002B000CB0120E137E240E050E0BC01CD010E94DB
:1002C000680BDA01C9019A8389838F81813461F4D3
:1002D000E9E8F0E089819A81892F99278083E8E80D
:1002E000F0E0898180830EC08F81823459F4EBE87D
:1002F000F0E089819A81892F99278083EAE8F0E0EC
:100300008981808329960FB6F894DEBF0FBECDBFDA
:10031000CF91DF911F910F91FF90EF900895CF92B1
:10032000DF92EF92FF920F931F93DF93CF93CDB79E
:10033000DEB727970FB6F894DEBF0FBECDBF9C8304
:100340008B837E836D834F838091000190910101A7
:100350007C0100E010E08B819C819C0140E050E03A
:10036000C801B7010E94360B9B01AC0180E094E20A
:10037000A4EFB0E0BC01CD010E94680BDA01C90115
:100380009A838983E6E8F0E089819A8101979183D5
:1003900080838F81813461F50F2EF8E8CF2EDD2424
:1003A000F02D8D819E817C0100E010E089819A8191
:1003B0009C0140E050E0C801B7010E94360BDC010F
:1003C000CB0120E137E240E050E0BC01CD010E94CA
:1003D000680BDA01C9010197F601918380838D8151
:1003E0009E8129813A81B90141E40E9424012EC0F5
:1003F0008F81823459F50F2EFAE8CF2EDD24F02DAF
:100400008D819E817C0100E010E089819A819C01B0
:1004100040E050E0C801B7010E94360BDC01CB017F
:1004200020E137E240E050E0BC01CD010E94680BC2
:10043000DA01C9010197F601918380838D819E8144
:1004400029813A81B90142E40E94240127960FB61E
:10045000F894DEBF0FBECDBFCF91DF911F910F91FA
:10046000FF90EF90DF90CF900895EF92FF920F935F
:100470001F93DF93CF93CDB7DEB7C054D0400FB6F4
:10048000F894DEBF0FBECDBFEAE2F0E080E68083E5
:10049000E7E2F0E01082E4E2F0E086E0808380E0D2
:1004A00090E0ACE8B2E48EAB9FABA8AFB9AF80E010
:1004B00090E0A8ECB2E48AAB9BABACABBDAB80E008
:1004C00090E0A0E0B0E08EA79FA7A8ABB9AB1986DB
:1004D00018861F821E821D821C821B821A8219822C
:1004E000809102018CAFE0E8F0E082EA8083E1E8ED
:1004F000F0E08BE18083E5E8F0E01082E4E8F0E0F2
:100500001082E1EBF0E087E080830E947600ECE768
:10051000F0E080E68083AAE7B0E0EAE7F0E08081DF
:1005200087608C93AAE7B0E0EAE7F0E0808180681A
:100530008C93AAE7B0E0EAE7F0E0808180648C93D6
:10054000EAE7F0E08081882F90E080749070009757
:10055000B9F7E9E7F0E080818BAFECE7F0E081E606
:100560008083AAE7B0E0EAE7F0E0808187608C93BF
:10057000AAE7B0E0EAE7F0E0808180688C93AAE720
:10058000B0E0EAE7F0E0808180648C93EAE7F0E095
:100590008081882F90E0807490700097B9F7E9E728
:1005A000F0E080818AAF8BAD833848F08BAD8095C9
:1005B00089871D8281E08B8381E08A8313C08BADA4
:1005C000883748F48BAD898781E08D8381E08B8308
:1005D00081E08A8307C08BAD823820F48BAD8937E8
:1005E00008F01A828AAD833850F08AAD80958887EA
:1005F00081E08C8381E08B8381E0898314C08AADA4
:10060000883740F48AAD88871C8281E08B8381E043
:10061000898309C08AAD823828F48AAD893710F001
:10062000198201C01B828985992787FD9095880FC3
:10063000991F2EE130E0B9010E94550BCB018F5F6D
:1006400089878885882F90E0880F991F2EE130E0F8
:10065000B9010E94550BCB018F5F88878B81813058
:1006600009F0E5C0E2EBF0E080818C3348F0E2EB8A
:10067000F0E010828F818F5F8F838E818F5F8E83FA
:100680008F81282F30E08985992787FD909528173D
:1006900039070CF467C08A81813009F063C08D810D
:1006A000813009F03FC021961FAE21976EA97FA926
:1006B00088AD99AD20E030E040E251E40E94DC08D2
:1006C000882324F081E021968FAF219781E0219645
:1006D0009FAD21978927882329F51FAE6EA57FA599
:1006E00088A999A920E030E04CE852E40E94DC0897
:1006F000882314F081E08FAF81E09FAD89278823A4
:1007000089F46EA97FA988AD99AD20E030E040E87A
:100710005FE30E94D806DC01CB018EAB9FABA8AF94
:10072000B9AF1FC08D818823E1F46EA57FA588A98C
:1007300099A920E030E84FE953E40E940C0918160B
:1007400084F06EA97FA988AD99AD20E030E040E843
:100750005FE30E940907DC01CB018EAB9FABA8AF22
:10076000B9AF1F829E818885981708F460C089817F
:10077000813009F05CC08C818130C9F51EAE6AA958
:100780007BA98CA99DA920E030E040E85FE30E94AE
:10079000DC08882314F081E08EAF81E09EAD8927CC
:1007A000882329F51DAE6EA57FA588A999A920E00B
:1007B00030E04CE852E40E94DC08882314F081E029
:1007C0008DAF81E09DAD8927882389F46AA97BA933
:1007D0008CA99DA920E030E040E85FE30E94D806A4
:1007E000DC01CB018AAB9BABACABBDAB1FC08C813A
:1007F0008823E1F46EA57FA588A999A920E030E8B7
:100800004FE953E40E940C09181684F06AA97BA9E9
:100810008CA99DA920E030E040E85FE30E94090731
:10082000DC01CB018AAB9BABACABBDAB1E826EA92E
:100830007FA988AD99AD2EA93FA948AD59AD0E94B9
:100840003607DC01CB017C018D016AA97BA98CA94B
:100850009DA92AA93BA94CA95DA90E943607DC01E4
:10086000CB019C01AD01C801B7010E940907DC0161
:10087000CB018EA79FA7A8ABB9AB8EA59FA5A8A9B2
:10088000B9A9BC01CD010E948A0DDC01CB018EA764
:100890009FA7A8ABB9AB6EA57FA588A999A920E0B1
:1008A00030E040EA53E40E943008DC01CB01BC0197
:1008B000CD010E94D50BDC01CB018AA79BA7ACA779
:1008C000BDA76AA57BA58CA59DA520E030E040E0F2
:1008D00050EC0E943607DC01CB01BC01CD012BEDB1
:1008E0003FE049E450E40E940907DC01CB018EA3FC
:1008F0009FA3A8A7B9A76AA97BA98CA99DA92EA97E
:100900003FA948AD59AD0E943008DC01CB01BC01C4
:10091000CD010E94480CDC01CB018AA39BA3ACA3B0
:10092000BDA36AA17BA18CA19DA12AA53BA54CA535
:100930005DA50E940907DC01CB018E8F9F8FA8A3C4
:10094000B9A36EA17FA188A599A520E030E044E37A
:1009500053E40E943607DC01CB01BC01CD012BED35
:100960003FE049E450E40E943008DC01CB01BC01C7
:10097000CD0120E030E040E251E40E943607DC0186
:10098000CB018A8F9B8FAC8FBD8F6A8D7B8D8C8DB9
:100990009D8D0E946005DC01CB018A879B87AC8717
:1009A000BD876E8D7F8D88A199A120E030E044E362
:1009B00053E40E943607DC01CB01BC01CD012BEDD5
:1009C0003FE049E450E40E943008DC01CB01BC0167
:1009D000CD0120E030E040E251E40E943607DC0126
:1009E000CB018E8B9F8BA88FB98F6E897F89888D65
:1009F000998D0E946005DC01CB018E879F87A88BB3
:100A0000B98B8E859F85A889B9892AE337E040E0B4
:100A100050E0BC01CD010E94360BDC01CB0124E883
:100A200033E040E050E0BC01CD010E94680BDA01E8
:100A3000C90188519C4FAF4FBF4F8E879F87A88BAE
:100A4000B98B8E859F859D8B8C8B8A859B85AC858C
:100A5000BD8520ED37E040E050E0BC01CD010E94B3
:100A6000360BDC01CB0124E833E040E050E0BC0170
:100A7000CD010E94680BDA01C9019C01AD0188E833
:100A800093E1A0E0B0E0821B930BA40BB50B8A8727
:100A90009B87AC87BD878A859B859B8B8A8B2A89A0
:100AA0003B8982E390E0B90141E40E948F012C89E7
:100AB0003D8982E390E0B90142E40E948F0127CD95
:100AC000EF92FF920F931F937B018C0120E030E0A7
:100AD00040E05FE40E94DC0888238CF0C801B70185
:100AE00020E030E040E05FE40E94D8060E943C092C
:100AF0009B01AC01205030404040504806C0C80126
:100B0000B7010E943C099B01AC01B901CA011F91C8
:100B10000F91FF90EF900895A0E0B0E0E2E9F5E0DA
:100B20000C949E0BDC012B01FA019C91923008F48D
:100B300039C1EB018881823008F433C1943069F403
:100B4000843009F02FC111969C91119789819817D3
:100B500009F428C1A3E0B1E025C1843009F421C122
:100B60008230A9F4923009F01DC19A01AD0188E0EC
:100B7000EA010990AE01E90109929E018150C1F795
:100B8000E201898111969C918923818308C1923069
:100B900009F407C112962D903C901397EB018A81BE
:100BA0009B811496AD90BD90CD90DC901797EC8012
:100BB000FD800E811F819101281B390BB90137FF80
:100BC00004C066277727621B730B603271050CF037
:100BD00061C0121613066CF537014801062E04C0D9
:100BE00096948794779467940A94D2F721E030E042
:100BF00040E050E004C0220F331F441F551F6A9588
:100C0000D2F721503040404050402E213F21402318
:100C10005123211531054105510521F021E030E036
:100C200040E050E079018A01E628F72808291929CF
:100C30003CC0232BD1F1260E371E35014601062E6E
:100C400004C096948794779467940A94D2F721E02D
:100C500030E040E050E004C0220F331F441F551F16
:100C60006A95D2F721503040404050402A213B2124
:100C70004C215D21211531054105510521F021E06F
:100C800030E040E050E059016A01A628B728C828A2
:100C9000D9280BC0821593052CF01C01AA24BB2473
:100CA000650103C0EE24FF24870111969C91D201B7
:100CB00011968C91981709F445C0992339F0A80131
:100CC00097012A193B094C095D0906C0A601950147
:100CD0002E193F09400B510B57FD08C0118233827A
:100CE000228224833583468357831DC081E081831C
:100CF0003382228288279927DC01821B930BA40B65
:100D0000B50B84839583A683B7830DC0220F331F51
:100D1000441F551F248335834683578382819381E3
:100D20000197938382832481358146815781DA013B
:100D3000C9010197A109B1098F5F9F4FAF4FBF4311
:100D400028F30BC0918333822282EA0CFB1C0C1D1A
:100D50001D1DE482F5820683178383E0808324814E
:100D600035814681578157FF1AC0C901AA2797FDCF
:100D7000A095BA2F81709070A070B070569547956D
:100D800037952795822B932BA42BB52B84839583A2
:100D9000A683B78382819381019693838283DF0147
:100DA00001C0D201CD01CDB7DEB7E2E10C94BA0BA0
:100DB000A0E2B0E0EEEDF6E00C94AA0B69837A8332
:100DC0008B839C832D833E834F835887E9E0EE2EEF
:100DD000F12CEC0EFD1ECE010196B7010E94650AB2
:100DE0008E010F5E1F4FCE010596B8010E94650A65
:100DF0008A8991E089278A8BC701B801AE01475ED5
:100E00005F4F0E948C050E949009A096E6E00C942A
:100E1000C60BA0E2B0E0EFE0F7E00C94AA0B698308
:100E20007A838B839C832D833E834F835887F9E09D
:100E3000EF2EF12CEC0EFD1ECE010196B7010E94A3
:100E4000650A8E010F5E1F4FCE010596B8010E9404
:100E5000650AC701B801AE01475E5F4F0E948C056D
:100E60000E949009A096E6E00C94C60BA0E2B0E0C8
:100E7000ECE3F7E00C949E0B69837A838B839C836D
:100E80002D833E834F835887CE010196BE01675F55
:100E90007F4F0E94650ACE010596BE016F5E7F4FAF
:100EA0000E94650A9985923088F089898230C8F05D
:100EB000943019F4823051F404C0843029F4923013
:100EC00081F483E091E0C6C0923049F420E09A8535
:100ED0008A89981321E02A87CE010996BBC0823007
:100EE00049F420E09A858A89981321E02A8BCE0163
:100EF0004196B0C02D843E844F8458886D887E888A
:100F00008F88988CEE24FF248701AA24BB246501D6
:100F100040E050E060E070E0E0E0F0E0C1018170AE
:100F20009070892BE9F0E60CF71C081D191D9A0139
:100F3000AB012A0D3B1D4C1D5D1D80E090E0A0E043
:100F4000B0E0E614F7040805190520F481E090E00C
:100F5000A0E0B0E0BA01A901480F591F6A1F7B1F2A
:100F6000AA0CBB1CCC1CDD1C97FE08C081E090E0E5
:100F7000A0E0B0E0A82AB92ACA2ADB2A3196E032DA
:100F8000F10549F0660C771C881C991C569447940F
:100F900037942794C3CFFA85EA892B893C898B85BE
:100FA0009C85280F391F2E5F3F4F17C0CA018170E3
:100FB0009070892B61F016950795F794E79480E07F
:100FC00090E0A0E0B0E8E82AF92A0A2B1B2B7695DE
:100FD0006795579547952F5F3F4F77FDE7CF0CC03B
:100FE000440F551F661F771F17FD4160EE0CFF1C55
:100FF000001F111F21503040403090E0590790E011
:10100000690790E4790760F32B8F3C8FDB01CA01FD
:101010008F779070A070B07080349105A105B105F4
:1010200061F447FD0AC0E114F1040105110529F03E
:10103000405C5F4F6F4F7F4F40781A8EFE1711F064
:1010400081E08A8F4D8F5E8F6F8F78A383E0898FC9
:10105000CE0149960E949009A096E2E10C94BA0B49
:10106000A8E1B0E0E6E3F8E00C94A60B69837A838C
:101070008B839C832D833E834F835887B9E0EB2E6F
:10108000F12CEC0EFD1ECE010196B7010E94650AFF
:101090008E010F5E1F4FCE010596B8010E94650AB2
:1010A0002985223008F47EC03989323010F4B80125
:1010B0007CC08A859A8989278A87243011F022305A
:1010C00031F4231709F06EC063E071E06EC0343074
:1010D00039F41D861E861F86188A1C861B8604C04E
:1010E000323021F484E08987B7015FC02B853C85CD
:1010F0008B899C89281B390B3C872B87ED84FE84C8
:101100000F851889AD88BE88CF88D88CEA14FB0477
:101110000C051D0540F4EE0CFF1C001F111F215093
:1011200030403C872B8720E030E040E050E080E01A
:1011300090E0A0E0B0E460E070E0EA14FB040C058D
:101140001D0540F0282B392B4A2B5B2BEA18FB0896
:101150000C091D09B695A79597958795EE0CFF1C70
:10116000001F111F6F5F7F4F6F31710531F7DA017B
:10117000C9018F779070A070B07080349105A1057F
:10118000B10561F427FD0AC0E114F1040105110560
:1011900029F0205C3F4F4F4F5F4F20782D873E87CF
:1011A0004F87588BBE01675F7F4FCB010E9490092C
:1011B0006896EAE00C94C20BA8E1B0E0E2EEF8E039
:1011C0000C94AA0B69837A838B839C832D833E8343
:1011D0004F83588789E0E82EF12CEC0EFD1ECE01DE
:1011E0000196B7010E94650A8E010F5E1F4FCE0166
:1011F0000596B8010E94650A8985823040F0898988
:10120000823028F0C701B8010E94DD0A01C08FEFCB
:101210006896E6E00C94C60BA8E1B0E0E2E1F9E0E4
:101220000C94AA0B69837A838B839C832D833E83E2
:101230004F83588789E0E82EF12CEC0EFD1ECE017D
:101240000196B7010E94650A8E010F5E1F4FCE0105
:101250000596B8010E94650A8985823040F0898927
:10126000823028F0C701B8010E94DD0A01C081E088
:101270006896E6E00C94C60BACE0B0E0E2E4F9E07E
:101280000C94AE0B69837A838B839C83CE01019689
:10129000BE016B5F7F4F0E94650A8D81823061F1D4
:1012A000823050F1843021F48E81882351F12EC098
:1012B0002F81388537FD20C06E812F3131051CF01C
:1012C0006623F9F023C08EE190E0821B930B298501
:1012D0003A854B855C8504C056954795379527958B
:1012E0008A95D2F76623B1F05095409530952195B7
:1012F0003F4F4F4F5F4F0EC020E030E040E050E0E6
:1013000009C02FEF3FEF4FEF5FE704C020E030E070
:1013100040E050E8B901CA012C96E2E00C94CA0BF7
:10132000DF92EF92FF920F931F93FC01E480F58010
:1013300006811781D1808081823048F480E090E07E
:10134000A0E1B0E0E82AF92A0A2B1B2BA5C08430C3
:1013500009F49FC0823021F4EE24FF24870105C0E8
:10136000E114F1040105110519F4E0E0F0E096C084
:10137000628173819FEF623879070CF05BC022E8CD
:101380003FEF261B370B2A3131052CF020E030E0EF
:1013900040E050E02AC0B801A701022E04C07695B3
:1013A0006795579547950A94D2F781E090E0A0E0C1
:1013B000B0E004C0880F991FAA1FBB1F2A95D2F75F
:1013C0000197A109B1098E219F21A023B123009784
:1013D000A105B10521F081E090E0A0E0B0E09A0124
:1013E000AB01282B392B4A2B5B2BDA01C9018F77F4
:1013F0009070A070B07080349105A105B10539F4EA
:1014000027FF09C0205C3F4F4F4F5F4F04C0215C56
:101410003F4F4F4F5F4FE0E0F0E02030A0E03A0751
:10142000A0E04A07A0E45A0710F0E1E0F0E07901FB
:101430008A0127C06038710564F5FB01E158FF4F50
:10144000D801C7018F779070A070B070803491057B
:10145000A105B10539F4E7FE0DC080E490E0A0E0FD
:10146000B0E004C08FE390E0A0E0B0E0E80EF91E29
:101470000A1F1B1F17FF05C016950795F794E794E1
:10148000319687E016950795F794E7948A95D1F7FA
:1014900005C0EE24FF248701EFEFF0E06E2F679583
:1014A00066276795902F9F77D794DD24D7948E2F4A
:1014B0008695492F462B582F5D29B701CA011F91E8
:1014C0000F91FF90EF90DF900895FC01DB014081C8
:1014D00051812281622F6F7770E0221F2227221F05
:1014E0009381892F880F822B282F30E0991F99270D
:1014F000991F11969C93119721153105A9F5411556
:1015000051056105710511F482E037C082E89FEF53
:1015100013969C938E9312979A01AB0167E0220F6A
:10152000331F441F551F6A95D1F783E08C930DC07C
:10153000220F331F441F551F12968D919C911397B4
:10154000019713969C938E931297203080E0380772
:1015500080E0480780E4580758F314962D933D9394
:101560004D935C93179708952F3F310579F44115FA
:1015700051056105710519F484E08C93089564FFA9
:1015800003C081E08C9312C01C9210C02F573040D2
:1015900013963C932E93129783E08C9387E0440F2D
:1015A000551F661F771F8A95D1F7706414964D9367
:1015B0005D936D937C93179708951F93DC01FB0156
:1015C0009C91923008F447C08081823008F443C077
:1015D000943051F411961C91843099F58181682FD3
:1015E00070E0611B71093FC0843021F0923031F40A
:1015F0008230B9F18181882389F12DC011961C9127
:1016000011978230F1F081811817D9F412962D913B
:101610003C911397828193818217930794F0281746
:101620003907BCF014968D919D910D90BC91A02D21
:101630002481358146815781281739074A075B077E
:1016400018F4112341F00AC082179307A407B507C5
:1016500040F4112319F061E070E005C06FEF7FEFF7
:1016600002C060E070E0CB011F910895629FD0013D
:10167000739FF001829FE00DF11D649FE00DF11D4D
:10168000929FF00D839FF00D749FF00D659FF00DFC
:101690009927729FB00DE11DF91F639FB00DE11DE9
:1016A000F91FBD01CF011124089597FB092E0726CC
:1016B0000AD077FD04D02ED006D000201AF4709501
:1016C00061957F4F0895F6F7909581959F4F089506
:1016D000A1E21A2EAA1BBB1BFD010DC0AA1FBB1F36
:1016E000EE1FFF1FA217B307E407F50720F0A21BA8
:1016F000B30BE40BF50B661F771F881F991F1A9415
:1017000069F760957095809590959B01AC01BD013E
:10171000CF010895AA1BBB1B51E107C0AA1FBB1F25
:10172000A617B70710F0A61BB70B881F991F5A956D
:10173000A9F780959095BC01CD0108952F923F9215
:101740004F925F926F927F928F929F92AF92BF92D1
:10175000CF92DF92EF92FF920F931F93CF93DF937D
:10176000CDB7DEB7CA1BDB0B0FB6F894DEBF0FBEDA
:10177000CDBF09942A88398848885F846E847D8427
:101780008C849B84AA84B984C884DF80EE80FD8029
:101790000C811B81AA81B981CE0FD11D0FB6F8949F
:1017A000DEBF0FBECDBFED0108959F939F7798D008
:1017B0000F9000203AF49058A2EA2AED3FE049E465
:1017C00050E40ED0F6C0E7D030F0ECD020F031F489
:1017D0009F3F11F41EF4A5C00EF4E095E7FB9BC0FB
:1017E000E92FF8D080F3BA176207730784079507CB
:1017F00018F099F4C6F510C10EF4E0950B2EBA2F2F
:10180000A02D062E622F202D072E732F302D082E8F
:10181000842F402D092E952F502DFF27591B99F00D
:10182000593F50F4503E68F11A16F040A22F232F72
:10183000342F4427585FF3CF469537952795A795C2
:10184000F0405395C9F77EF41F16BA0B620B730B69
:10185000840BBAF09150A1F0FF0FBB1F661F771FDA
:10186000881FC2F70EC0BA0F621F731F841F48F48F
:10187000879577956795B795F7959E3F08F0AECF1A
:101880009395880F08F09927EE0F979587950895FF
:10189000DF93DD27B92FBF7740E85FE31616170601
:1018A00048075B0710F4D92FBFD09F938F937F9386
:1018B0006F9370D1E8E6F0E037D07BD02F913F9165
:1018C0004F915F91C3D0DD2349F09058A2EA2AEDF1
:1018D0003FE049EC5FE3D0785D2782DFDF9169C0AC
:1018E0009F938F937F936F93E5E9F0E01DD061D0D4
:1018F0002F913F914F915F919F938F937F936F9320
:1019000060E070E080E89FE353DA04D12F913F91CB
:101910004F915F919BC097F99F6780E870E060E00E
:1019200008959FEF80EC0895DF93CF931F930F935B
:10193000FF92EF92DF92E62EF72E082F192F689470
:1019400007C0DA2ECE2FDF2F81D0EC2FFD2FE894A9
:10195000C895A02D3196C895202D3196C895302D6B
:101960003196C895402D3196C895502D31964EF33D
:10197000CE2FDF2F35DFEC2FFD2F2E2D3F2D402FCB
:10198000512FDA94F9F6DF90EF90FF900F911F91AD
:10199000CF91DF91089500240A94161617061806B1
:1019A0000906089500240A94121613061406050663
:1019B0000895092E0394000C11F4882352F0BB0FF4
:1019C00040F4BF2B11F460FF04C06F5F7F4F8F4F57
:1019D0009F4F089557FD9058440F551F59F05F3F92
:1019E00071F04795880F97FB991F61F09F3F79F041
:1019F00087950895121613061406551FF2CF4695C3
:101A0000F1DF08C0161617061806991FF1CF869544
:101A10007105610508940895E894BB276627772728
:101A2000862F972F97F90895262F372F482F592F54
:101A300060E070E080E89FE313CBADDF28F0B2DF19
:101A400018F0952309F067CF6CCFE7CFC3DFA8F379
:101A50009923D9F35523C9F3950F50E0551FAA27B1
:101A6000EE27FF27BB2700240894679520F4E20F98
:101A7000F31FB41F0A1E220F331F441FAA1F6695AF
:101A8000A9F7779530F4F30FB41F0A1E121E08F45D
:101A90006395330F441FAA1F221F769599F78795E8
:101AA00020F4B40F0A1E121E631F440FAA1F221F28
:101AB000331F8695A9F7862F712D602D11249F570E
:101AC00050408AF0E1F088234AF0EE0FFF1FBB1F61
:101AD000661F771F881F91505040A9F79E3F510500
:101AE00070F019CF9ACF5F3FECF3983EDCF3869508
:101AF00077956795B795F795E7959F5FC1F7FE2BAB
:101B0000880F911D9695879597F9089511F40EF415
:101B100008CF45C067DFD0F39923D9F3CEF39F57A1
:101B2000550B87FF4AD00024A0E640EA202D312D36
:101B300080585695979528F4805C660F771F881F0C
:101B400020F026173707480730F4621B730B840B0D
:101B5000202931294A2BA695179407942025312551
:101B60004A2758F7660F771F881F20F02617370778
:101B7000480730F4620B730B840B200D311D411D9F
:101B8000A09581F7622F732F842F9158880F969517
:101B900087950895262F372F482F592F67C99F3FC4
:101BA00031F0915020F4879577956795B795880F18
:101BB000911D9695879597F9089591505040660F1D
:0C1BC000771F881FD2F70895F894FFCF1C
:0C1BCC000001000000000000000000000C
:00000001FF
